:020000040000FA
:100000000C945E000C9486000C9486000C94860080
:100010000C9486000C9486000C9486000C941B05AE
:100020000C9486000C9486000C9486000C94860038
:100030000C9486000C9486000C9486000C94860028
:100040000C94D1040C9486000C949D050C947705B7
:100050000C9486000C9486000C9486000C94860008
:100060000C9486000C948600020000000800020137
:100070000000030407000000000000000000000072
:1000800000250028002B0000000000240027002A83
:100090000004040404040404040202020202020331
:1000A000030303030301020408102040800102043B
:1000B00008102001020408102000CF0511241FBEE3
:1000C000CFEFD8E0DEBFCDBF11E0A0E0B1E0E6E2C7
:1000D000FCE102C005900D92A436B107D9F722E0E9
:1000E000A4E6B1E001C01D92AE38B207E1F710E01E
:1000F000CEE5D0E004C02197FE010E94E90DCD3588
:10010000D107C9F70E945A060C94110E0C940000F6
:1001100090E0FC01EB55FF4F24918F569F4FFC015F
:100120008491882399F090E0880F991FFC01E9578A
:10013000FF4FA591B491FC01E358FF4F8591949135
:100140008FB7F894EC91E22BEC938FBF08950F9347
:100150001F93CF93DF93C0917102E2E7F2E0CD32BB
:1001600011F0E1E7F2E08F0120E030E0A901D801D1
:10017000DD918D0180ED8D0F8A3090F4AAE0B0E022
:100180000E94EF0D2D2FDD0F330B440B550B260F67
:10019000371F481F591F2053310941095109E7CF23
:1001A000A4E6B0E00E94EF0DAB01BC01DF0181913C
:1001B00090ED980F9A30D0F38E3259F511968C91BC
:1001C000119790ED980F9A3020F5082E000C990B9E
:1001D000C0972AE0289F8001299F100D1124012E2D
:1001E000000C220B330B400F511F621F731F12961E
:1001F0008C9190ED980F9A3060F4082E000C990BBA
:10020000C097092E000CAA0BBB0B480F591F6A1F81
:100210007B1FCD3239F470956095509541955F4FB5
:100220006F4F7F4FCB01BA01DF91CF911F910F919B
:1002300008954F925F926F927F928F929F92AF92AA
:10024000BF92CF92DF92EF92FF921F93CF93DF93F3
:10025000C1E7D2E0FE01C12CD12C7601119180EDD5
:10026000810F8A30A8F4AAE0B0E0A70196010E94AD
:10027000EF0DC12E110FDD08EE08FF08C60ED71EC8
:10028000E81EF91E80E3C81AD108E108F108E6CF9C
:10029000C701B60124E630E040E050E00E94C70DFF
:1002A0009B01AC0160EA76E881E090E00E94B70D26
:1002B0004B015C019E01899190ED980F9A30D0F32B
:1002C0008E3221F5E901219680E1482E87E2582EF1
:1002D000612C712CA99180ED8A0F8A30B8F40A2E16
:1002E000000CBB0BD097A30192010E94FA0D860E61
:1002F000971EA81EB91EC301B2012AE030E040E0FB
:1003000050E00E94C70D29013A01E4CFC701B601B0
:1003100024E630E040E050E00E94C70D60E472E463
:100320008FE090E00E94B70D6B017C01C501B40124
:100330006D5F7F4F8F4F9F4F26E030E040E050E0F1
:100340000E94C70DC701B601620F731F841F951F5E
:10035000DF91CF911F91FF90EF90DF90CF90BF90F2
:10036000AF909F908F907F906F905F904F90089587
:1003700090E0FC01E759FF4F2491FC01EB55FF4F42
:100380003491FC01EF56FF4FE491EE23C9F0222394
:1003900039F0233001F1A8F4213019F1223029F18C
:1003A000F0E0EE0FFF1FE358FF4FA591B4918FB718
:1003B000F894EC91611126C030953E233C938FBF99
:1003C00008952730A9F02830C9F0243049F78091EA
:1003D00080008F7D03C0809180008F7780938000A4
:1003E000DFCF84B58F7784BDDBCF84B58F7DFBCF26
:1003F0008091B0008F778093B000D2CF8091B00011
:100400008F7DF9CF3E2BDACF3FB7F89480917A01F8
:1004100090917B01A0917C01B0917D0126B5A89BB4
:1004200005C02F3F19F00196A11DB11D3FBFBA2F86
:10043000A92F982F8827BC01CD01620F711D811D46
:10044000911D42E0660F771F881F991F4A95D1F7CB
:1004500008958F929F92AF92BF92CF92DF92EF92C8
:10046000FF920E9404024B015C0188EEC82E83E0DB
:10047000D82EE12CF12C0E940402681979098A090E
:100480009B09683E734081059105A8F321E0C21ADB
:10049000D108E108F10888EE880E83E0981EA11CBF
:1004A000B11CC114D104E104F10429F7FF90EF90CD
:1004B000DF90CF90BF90AF909F908F9008952FB70F
:1004C000F894609176017091770180917801909114
:1004D00079012FBF08959091000189130BC0E8E6C0
:1004E000F0E0E4919FEF90930001E13049F028F0B3
:1004F000E23061F060E00C94B80110926E00FACF27
:1005000090916F009D7F90936F00F4CF9091700059
:100510009D7F9093700091E09093B0009091B10016
:10052000987F94609093B1001092B300E3CFAF92A4
:10053000BF92CF92DF92EF92FF920F931F93CF93D0
:10054000DF936C017B018B01040F151FEB015E0132
:10055000AE18BF08C017D10759F06991D601ED91C7
:10056000FC910190F081E02DC6010995892B79F766
:10057000C501DF91CF911F910F91FF90EF90DF9018
:10058000CF90BF90AF900895FC01538D448D252FDF
:1005900030E0842F90E0821B930B541710F0CF961D
:1005A000089501970895FC01918D828D981761F04F
:1005B000A28DAE0FBF2FB11D5D968C91928D9F5F66
:1005C0009F73928F90E008958FEF9FEF0895FC0145
:1005D000918D828D981731F0828DE80FF11D858DF8
:1005E00090E008958FEF9FEF0895FC01918D228D8B
:1005F000892F90E0805C9F4F821B91098F73992710
:1006000008958EE791E00E94F50221E0892B09F41C
:1006100020E0822F089580E090E0892B29F00E944D
:10062000010381110C9400000895FC01A48DA80F12
:10063000B92FB11DA35ABF4F2C91848D90E0019624
:100640008F739927848FA689B7892C93A089B18944
:100650008C91837080648C93938D848D981306C0E5
:100660000288F389E02D80818F7D80830895EF9249
:10067000FF920F931F93CF93DF93EC0181E0888F5C
:100680009B8D8C8D98131AC0E889F989808185FF2C
:1006900015C09FB7F894EE89FF896083E889F989CE
:1006A00080818370806480839FBF81E090E0DF91D0
:1006B000CF911F910F91FF90EF900895F62E0B8D23
:1006C00010E00F5F1F4F0F731127E02E8C8D8E11DE
:1006D0000CC00FB607FCFACFE889F989808185FF45
:1006E000F5CFCE010E941503F1CFEB8DEC0FFD2F5E
:1006F000F11DE35AFF4FF0829FB7F8940B8FEA8900
:10070000FB8980818062CFCFCF93DF93EC01888D0E
:100710008823B9F0AA89BB89E889F9898C9185FD7C
:1007200003C0808186FD0DC00FB607FCF7CF8C910A
:1007300085FFF2CF808185FFEDCFCE010E941503AA
:10074000E9CFDF91CF910895FC0101900020E9F7F6
:100750003197AF01481B590BBC018EE791E00C9417
:1007600097028F929F92AF92BF920F931F93CF9356
:10077000DF93CDB7DEB7A1970FB6F894DEBF0FBEFB
:10078000CDBF19A2423008F44AE08E010F5D1F4F21
:10079000842E912CB12CA12CA50194010E94C70D8F
:1007A000E62FB901CA01EA30F4F4E05DD801EE9316
:1007B0008D01232B242B252B79F790E080E01097D7
:1007C00019F0CD010E94A403A1960FB6F894DEBFE4
:1007D0000FBECDBFDF91CF911F910F91BF90AF9012
:1007E0009F908F900895E95CE1CF4F925F926F9256
:1007F0007F928F929F92AF92BF92CF92DF92EF92B1
:10080000FF920F931F93CF936B017C01742EAC0169
:100810009B010E94B20D882399F083E191E0CF9172
:100820001F910F91FF90EF90DF90CF90BF90AF900E
:100830009F908F907F906F905F904F900C94A40347
:1008400046015701E894B7F82FEF3FEF4FE75FE716
:10085000C501B4010E94B20D81110DC02FEF3FEF11
:100860004FE75FE7C501B4010E94E80B18161CF4BE
:1008700087E191E0D4CF2FEF3FEF4FE75FE4C7016F
:10088000B6010E94400D18161CF48BE191E0C7CF11
:100890002FEF3FEF4FE75FECC701B6010E94E80B77
:1008A00087FDF3CF20E030E0A901C701B6010E9427
:1008B000E80B10E000E087FF0AC06DE28EE791E0F0
:1008C0000E9437038C01F7FAF094F7F8F094C0E037
:1008D00060E070E080E09FE37C1641F020E030E0D3
:1008E00040E251E40E94ED0BCF5FF6CFA7019601E5
:1008F0000E947C0B2B013C010E945F0C4B015C01B0
:100900004AE00E94B1037C01E00EF11ECC23C1F14C
:10091000C501B4010E948E0C9B01AC01C301B20160
:100920000E947B0B4B015C016EE28EE791E00E941E
:100930003703E80EF91EC15018F120E030E040E224
:1009400051E4C501B4010E94450D2B013C010E94F8
:100950005F0C4B01B12CA12C4AE0C501B4010E94EF
:10096000B103E80EF91EC501B4010E948E0C9B0173
:10097000AC01C301B2010E947B0B4B015C01DBCFD8
:10098000C701CF911F910F91FF90EF90DF90CF9013
:10099000BF90AF909F908F907F906F905F904F909F
:1009A00008951F920F920FB60F9211242F933F9329
:1009B0008F939F93AF93BF9380917601909177012E
:1009C000A0917801B09179013091750123E0230F56
:1009D0002D3758F50196A11DB11D20937501809307
:1009E000760190937701A0937801B093790180917B
:1009F0007A0190917B01A0917C01B0917D010196DB
:100A0000A11DB11D80937A0190937B01A0937C017D
:100A1000B0937D01BF91AF919F918F913F912F91A5
:100A20000F900FBE0F901F90189526E8230F029687
:100A3000A11DB11DD2CF1F920F920FB60F9211249C
:100A40002F933F934F935F936F937F938F939F93D6
:100A5000AF93BF93EF93FF938091690190916A01E7
:100A6000A0916B01B0916C01892B8A2B8B2BD1F15A
:100A700090916401E0916501F09166018081892780
:100A800080838091690190916A01A0916B01B0917E
:100A90006C01181619061A061B069CF48091690150
:100AA00090916A01A0916B01B0916C010197A1092D
:100AB000B1098093690190936A01A0936B01B0938F
:100AC0006C01FF91EF91BF91AF919F918F917F91B9
:100AD0006F915F914F913F912F910F900FBE0F90AB
:100AE0001F901895809100010E946B02EACF1F921F
:100AF0000F920FB60F9211242F933F934F935F9352
:100B00006F937F938F939F93AF93BF93EF93FF93D5
:100B10008EE791E00E941503FF91EF91BF91AF9195
:100B20009F918F917F916F915F914F913F912F9105
:100B30000F900FBE0F901F9018951F920F920FB637
:100B40000F9211242F938F939F93EF93FF93E09134
:100B50008E01F0918F018081E0919401F0919501D7
:100B600082FD1BC09081809197018F5F8F732091D0
:100B70009801821741F0E0919701F0E0E258FE4FB2
:100B8000958F80939701FF91EF919F918F912F9176
:100B90000F900FBE0F901F9018958081F4CFEEE755
:100BA000F1E01382128288EE93E0A0E0B0E084834B
:100BB0009583A683B78385E091E09183808385EC5C
:100BC00090E09587848784EC90E09787868780EC17
:100BD00090E0918B808B81EC90E0938B828B82EC08
:100BE00090E0958B848B86EC90E0978B868B118EB2
:100BF000128E138E148EEBE1F2E04FEF5FEFBA012D
:100C00004083518362837383108611861286138614
:100C10008FEF99ECAAE9BBE3808B918BA28BB38B0E
:100C2000808F918FA28FB38F80A391A3A2A3B3A330
:100C300080A791A7A2A7B3A780AB91ABA2ABB3ABA0
:100C400040AF51AF62AF73AF8FEF90E090935C0213
:100C500080935B0240935F02509360026093610255
:100C60007093620240936702509368026093690236
:100C700070936A0210926F021092700282E0809369
:100C800080021092810210928202109283021092CE
:100C900084021092850210928602109287021092AE
:100CA00089021092880210928B0210928A0210928E
:100CB00071020895789484B5826084BD84B58160A2
:100CC00084BD85B5826085BD85B5816085BD809117
:100CD0006E00816080936E0010928100809181008F
:100CE0008260809381008091810081608093810087
:100CF000809180008160809380008091B100846049
:100D00008093B1008091B00081608093B0008091A9
:100D10007A00846080937A0080917A008260809368
:100D20007A0080917A00816080937A0080917A00C5
:100D3000806880937A001092C1008CE00E94880045
:100D40008BE00E948800E0918E01F0918F0182E09B
:100D50008083E0918A01F0918B011082E0918C01F7
:100D6000F0918D018FEC808310929601E0919201B9
:100D7000F091930186E08083E0919001F0919101E0
:100D8000808180618083E0919001F0919101808168
:100D900088608083E0919001F0919101808180686A
:100DA0008083E0919001F091910180818F7D80831B
:100DB0008FE191E00E94A4034AE06DE070E080E0E2
:100DC00090E00E94B10389E291E00E94A4038CE2CA
:100DD00091E00E94A40389E291E00E94A40389E2C9
:100DE00091E00E94A403CC24CA94DC2C760112E08A
:100DF0004CE9242E40E0342E61E08CE00E94B801E2
:100E0000809100018B30B1F4E8E6F0E0C491C7FDB9
:100E1000B2C08BE00E948800CC2309F47CC0C230B1
:100E200009F08DC08091B100887F84608093B1000B
:100E300089EF47C18F3F09F09EC08BE0809300018E
:100E4000E8E6F0E0C491CF3F09F495C0C13019F154
:100E500048F0C23009F43DC0C7FD8DC08BE00E9450
:100E60008800DDCF14BC15BC84B5826084BD85B517
:100E7000816085BDF1018491E82FF0E0EE0FFF1F46
:100E8000E358FF4F85919491E0EBF0E084918093DB
:100E90006801C0E0BECF1092800010928100809166
:100EA00081008860809381008091810081608093BF
:100EB0008100F1018491E82FF0E0EE0FFF1FE3586D
:100EC000FF4F85919491E0EBF0E08491809367016E
:100ED000A0CF1092B0001092B1008091B00082605B
:100EE0008093B0008091B10081608093B100F101E6
:100EF0008491E82FF0E0EE0FFF1FE358FF4F85913C
:100F000094919093660180936501E0EBF0E0849109
:100F1000809364017ECF85B5887F836085BD89EF2E
:100F200087BDC0927101D0927201E0927301F0927C
:100F3000740180916E00826080936E001CC0C1308D
:100F400009F0B8C080918100887F81608093810022
:100F50008FE79EE39093890080938800C0926D0193
:100F6000D0926E01E0926F01F092700180916F005B
:100F7000826080936F000E94290260E08CE00E94F2
:100F8000B8018BE00E946B020E9429020E945F025E
:100F90004B015C0100E0772473940E945F026819A2
:100FA00079098A099B09683E73408105910508F417
:100FB00074C1002309F471C040902B0250902C02A0
:100FC00060902D0270902E02809033029090340237
:100FD000A0903502B090360280916702909168022D
:100FE000A0916902B0916A028F3F9F4FAF4FBF4FF0
:100FF00011F00E945F02FFEF4F16F9EC5F06FAE96D
:101000006F06FBE37F0609F441C3C301B2010E94EE
:10101000900C20E034E244E759E40E94ED0B2B01F0
:101020003C01C501B4010E94900C20E034E244E789
:1010300059E40E94ED0B4B015C0188E491E00E94B1
:10104000A40320E030E04AE754E4C301B2010E9467
:10105000E80B811103C0412C512C320146E0C30141
:10106000B2010E94F50384E591E00E94A40320E010
:1010700030E04AE754E4C501B4010E94E80B811155
:1010800003C0812C912C540146E0C501B4010E949B
:10109000F50389E291E00E94A40380E090E0892BAF
:1010A00009F4AACE0E940103882309F4A1CE0E946C
:1010B00000009ECEC23021F0C1115DCF8FE730CF4E
:1010C0008FE78093B300C0926901D0926A01E092E9
:1010D0006B01F0926C0180917000826080937000CF
:1010E0004ACFCA3209F405C1CC3209F0BBC28091A3
:1010F0006F028C2780936F02FCC080918102F0E028
:10110000EF58FD4F1082D0917002DD2309F46AC1BF
:1011100020917102822F022E000C990B3FEB320FAF
:10112000363008F0EBC0C7978295807F90917202AD
:10113000292F092E000C330B4FEB490F463008F0D6
:10114000E5C027533109820F90916F02891340C186
:10115000D0918302DD2309F4CFC080918802909161
:10116000890201969093890280938802809163029C
:1011700090916402A0916502B091660280935F0233
:1011800090936002A0936102B093620280916B021F
:1011900090916C02A0916D02B0916E0280936702F3
:1011A00090936802A0936902B0936A0280918002D2
:1011B000882309F4B4C0813009F060C080911F0217
:1011C00090912002A0912102B091220280931B02F3
:1011D00090931C02A0931D02B0931E0280912702DF
:1011E00090912802A0912902B0912A0280932302B3
:1011F00090932402A0932502B093260280912F029F
:1012000090913002A0913102B091320280932B0272
:1012100090932C02A0932D02B0932E02809137025E
:1012200090913802A0913902B0913A028093330232
:1012300090933402A0933502B09336028091470216
:1012400090914802A0914902B0914A0280934302D2
:1012500090934402A0934502B093460280914F02BE
:1012600090915002A0915102B091520280934B0292
:1012700090934C02A0934D02B0934E028091810254
:101280008F5F809381021092820281E0CA3209F05E
:1012900080E080937002D1110D2F8EE791E00E94C3
:1012A000F502892B09F479CE8EE791E00E94D302F2
:1012B000C82F8091840290918502A0918602B091FE
:1012C00087020196A11DB11D80938402909385022F
:1012D000A0938602B0938702C43209F4B6C1E091AC
:1012E0008202C5320CF0FDCECA3019F0CD3009F0C3
:1012F000B9C1EF3008F401CFD0E0C0CF215626307D
:1013000018F48755910910CFC0970ECF915696309B
:1013100018F42755310917CF2053310914CF809184
:101320003F0290914002A0914102B091420280930D
:101330003B0290933C02A0933D02B0933E02809109
:101340001F0290912002A0912102B091220280936D
:101350001B0290931C02A0931D02B0931E02809169
:101360002F0290913002A0913102B091320280930D
:101370002B0290932C02A0932D02B0932E02809109
:10138000370290913802A0913902B0913A028093CD
:10139000330290933402A0933502B09336028091C9
:1013A0005D0290915E0290935C0280935B0280915B
:1013B000570290915802A0915902B0915A0280931D
:1013C000530290935402A0935502B093560256CF05
:1013D00080918A0290918B02019690938B02809368
:1013E0008A028ACF81111CC041E752E0ACE3B1E030
:1013F000CA01FC012191CF01222309F450C13D9182
:101400002317B9F3A2E4B1E0FA018191AF01882377
:1014100009F448C19D918917B9F3109380022ECF2A
:10142000E0918002E23009F467CF90917102992334
:1014300009F462CF20E2E29FF0011124E82B3197FA
:10144000E932F10508F01ACFE85DF54F0C94E90D8B
:101450006E0A890A9E0AB90AC40AFE0A050B0F0B16
:101460001A0B3E093E093E093E093E093E093E0966
:101470003E093E093E093E093E093E093E093E0934
:101480003E093E093E093E093E093E093E093E0924
:101490006E0A830A890A9E0AB90AC40ADF0AEA0A9E
:1014A000510AE1E7F2E020E030E0A901619080ED2F
:1014B000860D8A3008F099C0AAE0B0E00E94EF0DD6
:1014C000262D660C330B440B550B260F371F481F78
:1014D000591F2053310941095109E8CF0E94A70043
:1014E00060931F0270932002809321029093220246
:1014F0000E945F02609363027093640280936502AE
:1015000090936602BBCE81E0913409F47BC080E009
:1015100079C00E94190160932F027093300280936A
:101520003102909332020E945F0260936B027093CB
:101530006C0280936D0290936E02A0CE933509F0F9
:10154000DBCE80912F0290913002A0913102B091B8
:101550003202B095A095909581959F4FAF4FBF4FA8
:1015600080932F0290933002A0933102B093320205
:1015700085CE0E94190160933702709338028093E0
:10158000390290933A027ACE973509F0B5CE809120
:10159000370290913802A0913902B0913A02B09589
:1015A000A095909581959F4FAF4FBF4F8093370285
:1015B00090933802A0933902B0933A025FCE0E9412
:1015C000A70060934702709348028093490290936A
:1015D0004A0254CE0E94A70060934F0270935002BB
:1015E000809351029093520249CE20932702309368
:1015F00028024093290250932A0240CE81E0913381
:101600000CF485CF8093830239CE81E792E00E946B
:10161000550B992790935E0280935D022FCE0E9416
:10162000A7006093570270935802809359029093D9
:101630005A0224CE0E94A70060933F02709340029A
:10164000809341029093420219CE1092820210922E
:10165000810210926F021093800210927002109219
:1016600083021BCEEE3040F481E08E0F8093820225
:10167000F0E0EF58FD4FC0838091700281110DCED4
:1016800080916F02C827C0936F0207CE412C512C66
:101690008AE7682E84E4782E53014201CECC709202
:1016A0008002ECCD10928002E9CDFC0188279927B9
:1016B000E89421912032E9F3293010F02E30C8F35C
:1016C0002B3241F02D3239F4689404C00E94730B20
:1016D000820F911D219120532A30C0F31EF4909562
:1016E00081959F4F08957AE0979F902D879F802D39
:1016F000910D112408955058BB27AA270E94930BDF
:101700000C94060D0E94F80C38F00E94FF0C20F09B
:1017100039F49F3F19F426F40C94F50C0EF4E0957F
:10172000E7FB0C94EF0CE92F0E94170D58F3BA1742
:10173000620773078407950720F079F4A6F50C94E7
:10174000390D0EF4E0950B2EBA2FA02D0B01B90127
:1017500090010C01CA01A0011124FF27591B99F027
:10176000593F50F4503E68F11A16F040A22F232F33
:10177000342F4427585FF3CF469537952795A79583
:10178000F0405395C9F77EF41F16BA0B620B730B2A
:10179000840BBAF09150A1F0FF0FBB1F661F771F9B
:1017A000881FC2F70EC0BA0F621F731F841F48F450
:1017B000879577956795B795F7959E3F08F0B0CFD9
:1017C0009395880F08F09927EE0F979587950895C0
:1017D0000E94CB0C08F481E008950E94010C0C9447
:1017E000060D0E94FF0C58F00E94F80C40F029F4FE
:1017F0005F3F29F00C94EF0C51110C943A0D0C94AE
:10180000F50C0E94170D68F39923B1F3552391F35A
:10181000951B550BBB27AA2762177307840738F05F
:101820009F5F5F4F220F331F441FAA1FA9F335D0BC
:101830000E2E3AF0E0E832D091505040E695001C70
:10184000CAF72BD0FE2F29D0660F771F881FBB1F2A
:10185000261737074807AB07B0E809F0BB0B802D08
:10186000BF01FF2793585F4F3AF09E3F510578F034
:101870000C94EF0C0C943A0D5F3FE4F3983ED4F3D4
:10188000869577956795B795F7959F5FC9F7880F08
:10189000911D9695879597F90895E1E0660F771F5A
:1018A000881FBB1F621773078407BA0720F0621BEB
:1018B000730B840BBA0BEE1F88F7E09508950E9416
:1018C0001F0D88F09F5798F0B92F9927B751B0F0A6
:1018D000E1F0660F771F881F991F1AF0BA95C9F7B4
:1018E00014C0B13091F00E94390DB1E008950C940C
:1018F000390D672F782F8827B85F39F0B93FCCF3BF
:10190000869577956795B395D9F73EF49095809530
:10191000709561957F4F8F4F9F4F0895E89409C050
:1019200097FB3EF490958095709561957F4F8F4F12
:101930009F4F9923A9F0F92F96E9BB279395F69528
:10194000879577956795B795F111F8CFFAF4BB0FA6
:1019500011F460FF1BC06F5F7F4F8F4F9F4F16C00A
:10196000882311F096E911C0772321F09EE8872F94
:10197000762F05C0662371F096E8862F70E060E050
:101980002AF09A95660F771F881FDAF7880F9695C9
:10199000879597F90895990F0008550FAA0BE0E86D
:1019A000FEEF16161706E807F907C0F01216130621
:1019B000E407F50798F0621B730B840B950B39F461
:1019C0000A2661F0232B242B252B21F408950A26C7
:1019D00009F4A140A6958FEF811D811D089597F907
:1019E0009F6780E870E060E008959FEF80EC0895C5
:1019F00000240A94161617061806090608950024EE
:101A00000A9412161306140605060895092E039467
:101A1000000C11F4882352F0BB0F40F4BF2B11F4DB
:101A200060FF04C06F5F7F4F8F4F9F4F089557FD3A
:101A30009058440F551F59F05F3F71F04795880F3C
:101A400097FB991F61F09F3F79F0879508951216D3
:101A500013061406551FF2CF4695F1DF08C016167F
:101A600017061806991FF1CF869571056105089430
:101A70000895E894BB2766277727CB0197F9089547
:101A80000E94CB0C08F48FEF08950E94580D0C941F
:101A9000060D0E94F80C38F00E94FF0C20F09523F0
:101AA00011F00C94EF0C0C94F50C11240C943A0DDD
:101AB0000E94170D70F3959FC1F3950F50E0551FCD
:101AC000629FF001729FBB27F00DB11D639FAA2793
:101AD000F00DB11DAA1F649F6627B00DA11D661FE2
:101AE000829F2227B00DA11D621F739FB00DA11D03
:101AF000621F839FA00D611D221F749F3327A00DBD
:101B0000611D231F849F600D211D822F762F6A2F58
:101B100011249F5750409AF0F1F088234AF0EE0FBD
:101B2000FF1FBB1F661F771F881F91505040A9F7EA
:101B30009E3F510580F00C94EF0C0C943A0D5F3FE2
:101B4000E4F3983ED4F3869577956795B795F79526
:101B5000E7959F5FC1F7FE2B880F911D969587959E
:101B600097F908950E94CB0C880B990B0895DB011F
:101B70008F939F930E94EF0DBF91AF91A29F800D15
:101B8000911DA39F900DB29F900D11240895A1E285
:101B90001A2EAA1BBB1BFD010DC0AA1FBB1FEE1FE7
:101BA000FF1FA217B307E407F50720F0A21BB30B32
:101BB000E40BF50B661F771F881F991F1A9469F7AE
:101BC00060957095809590959B01AC01BD01CF010A
:101BD0000895EE0FFF1F0590F491E02D09940E94E7
:101BE000020EA59F900DB49F900DA49F800D911D96
:101BF00011240895B7FF0C94EF0D0E94EF0D821B86
:101C0000930B0895A29FB001B39FC001A39F700DD5
:101C1000811D1124911DB29F700D811D1124911DF4
:101C20000895F894FFCFFF0000000037039702C427
:101C3000028403F502D302E7026E616E00696E66EC
:101C4000006F766600496E666F756E642056000DF3
:101C50000A0054657374616E646F2049666F756E17
:101C600064004750524D43004750474741004C6184
:101C7000746974756465203D20002C204C6F6E677C
:0A1C80006974756465203D200000C2
:107E0000112484B714BE81FFF0D085E080938100F7
:107E100082E08093C00088E18093C10086E0809377
:107E2000C20080E18093C4008EE0C9D0259A86E02C
:107E300020E33CEF91E0309385002093840096BBD3
:107E4000B09BFECF1D9AA8958150A9F7CC24DD24C4
:107E500088248394B5E0AB2EA1E19A2EF3E0BF2EE7
:107E6000A2D0813461F49FD0082FAFD0023811F036
:107E7000013811F484E001C083E08DD089C08234E0
:107E800011F484E103C0853419F485E0A6D080C0E4
:107E9000853579F488D0E82EFF2485D0082F10E0AE
:107EA000102F00270E291F29000F111F8ED06801E7
:107EB0006FC0863521F484E090D080E0DECF843638
:107EC00009F040C070D06FD0082F6DD080E0C81688
:107ED00080E7D80618F4F601B7BEE895C0E0D1E017
:107EE00062D089930C17E1F7F0E0CF16F0E7DF06D8
:107EF00018F0F601B7BEE89568D007B600FCFDCFD4
:107F0000A601A0E0B1E02C9130E011968C91119780
:107F100090E0982F8827822B932B1296FA010C0160
:107F200087BEE89511244E5F5F4FF1E0A038BF0790
:107F300051F7F601A7BEE89507B600FCFDCF97BE46
:107F4000E89526C08437B1F42ED02DD0F82E2BD052
:107F50003CD0F601EF2C8F010F5F1F4F84911BD097
:107F6000EA94F801C1F70894C11CD11CFA94CF0C13
:107F7000D11C0EC0853739F428D08EE10CD085E9AC
:107F80000AD08FE07ACF813511F488E018D01DD067
:107F900080E101D065CF982F8091C00085FFFCCF94
:107FA0009093C60008958091C00087FFFCCF809118
:107FB000C00084FD01C0A8958091C6000895E0E648
:107FC000F0E098E1908380830895EDDF803219F02E
:107FD00088E0F5DFFFCF84E1DECF1F93182FE3DFCA
:107FE0001150E9F7F2DF1F91089580E0E8DFEE27F6
:047FF000FF270994CA
:027FFE00040479
:00000001FF
